:03000000020B9858
:0C0B9800787FE4F6D8FD758119020BDFB0
:100DD10053544F5000536C6F7720446F776E005718
:100DE100656C636F6D6520746F00486F74656C206E
:100DF10043616C69666F726E6961003F065B4F66A5
:050E01006D7D077F6F0D
:070F060001131E0218000197
:100E8600E4FDFCC3ED9FEC9E5015E4FBFA0BBB00A2
:0F0E9600010AEB64644A70F50DBD00010C80E4A5
:010EA500222A
:080E5E00C2A5D2A77F017E00AE
:100E6600E4FDFCC3ED9FEC9E5015E4FBFA0BBB00C2
:0F0E7600010AEB64644A70F50DBD00010C80E4C5
:010E8500224A
:0E0EDE008F80C2A6120E5EC2A77F05020E66AE
:0E0EEC008F80D2A6120E5EC2A77F05020E6690
:060E33008B0E8A0F8910EE
:100E3900E4F511F512AB0EAA0FA9108512828511DE
:100E490083120B5DFF600D120EEC0512E51270E5C1
:040E5900051180E11E
:010E5D002272
:100E06008F098D0A8B0B8A0C890DE5097008E50A96
:100E1600540F4480800AE509600AE50A540F44C06D
:0D0E2600FF120EDEAB0BAA0CA90D020E335D
:100EA6007F38120EDE7F0E120EDE7F01120EDE7FFF
:0E0EB60006120EDE7F0C120EDE7F80020EDEB4
:0C0EFA00758901758AFE758CB7D28C22B8
:03000B00020EC41E
:100EC400C0E0B29330930985178AE516F58C800744
:0A0ED40085158AE514F58CD0E03294
:080CA6008F0B8E0A8D098C08EA
:100CAE00750F00750E02750D90750C46E4FBFA7902
:100CBE00C87842AF0FAE0EAD0DAC0C120A01AB0BE5
:100CCE00AA0AA909A8081208F8120ADC8E168F17AC
:100CDE00AC16AD17E4120AA3A804A905AA06AB0721
:100CEE00AF0FAE0EAD0DAC0C120803120ADC8E1453
:100CFE008F15C374FF9517F51774FF9516F516C368
:0C0D0E0074FF9515F51574FF9514F5148D
:010D1A0022B6
:100C2400D2AFD2A9120EFA120EA6E513D394054040
:100C34000AE519451860047F028025E513D394055D
:100C44005010E5139400400AE519451860047F012B
:100C5400800EE513D39400400AE51945187004FF8B
:100C6400120D1BE513701475131EE5194518700455
:100C74007F0180027F007518008F19AF13120D7E5B
:100C84001513E5194518600D7F007E007D207C4119
:100C9400120CA680957F007E007DA07C40120CA6DD
:020CA400808846
:100D7E00EF75F00A84F50AEF75F00A84A9F0E4F530
:100D8E0008F509E50A900DFC93F580D2A2C2A3C224
:100D9E00A47F017E00120E86D2A2D2A3D2A4E99322
:100DAE00F580C2A2C2A3C2A4120E86D2A2D2A3D230
:100DBE00A40509E50970020508C394F4E508940139
:020DCE0040C122
:010DD0002200
:100D1B008F08E5087015D292C290C2917F01120E16
:100D2B00DE7BFF7A0D79D17D068018E508B40117BB
:100D3B00D291C290C2927F01120EDE7BFF7A0D79A7
:100D4B00D67D03E4FF8028E50864027025D290C2AB
:100D5B0091C2927F01120EDE7BFF7A0D79E07D034B
:100D6B00E4FF120E067BFF7A0D79EBE4FD7F011297
:030D7B000E06223F
:10080000020B48E86480F8E933E83360110460F0D3
:10081000ED33EC337009E8FCE9FDEAFEEBFF22045E
:1008200060DED3EB9FEA9EE99DE8C2E78CF0C2F759
:1008300095F0400CE8CCF8E9CDF9EACEFAEBCFFB25
:10084000120B1385D0F05804700320D5B3E8047060
:10085000075002B2D5020B5292D5EC0460F7E4CCFB
:10086000C0E0C398F8603B94186008400DD0E0FBEE
:10087000020B2AE4FBFAC9FC8028E830E406E4C94C
:10088000FBE4CAFCE830E305E4C9CACBFCE8540742
:100890006010F8C3E913F9EA13FAEB13FBEC13FC4D
:1008A000D8F130F52FC3E49CFCEF9BFFEE9AFEEDF0
:1008B00099FDD0E0FBEF4E4D4C701222DB03020B92
:1008C0004FEC2CFCEF33FFEE33FEED33FDED30E764
:1008D000EB020B2AEF2BFFEE3AFEED39FDD0E0FBE9
:1008E00050130BBB0003020B52ED13FDEE13FEEF92
:0808F00013FFEC13FC020B2ABC
:1008F800EC4D6011E8497017ED33EC3304600DE4FA
:10090800FCFFFEFD22E933E8330470F8020B4812BD
:100918000B1358046009E4CC2481500628500902BE
:100928000B52284003020B4FC0E0EB4A7044B980D9
:1009380006D0E0FB020B3EEF4E701CBD8008EBFFBB
:10094800EAFEE9FD80EBE98DF0A4FEE5F00209E19D
:10095800E9CDF9EAFEEBFFEF89F0A4FCE5F0CE89DA
:10096800F0A42EFFE435F0CD89F0A42DFEE435F097
:100978008067EF4E7005BD80D780C3EF8BF0A4ACC5
:10098800F0EE8BF0A42CFCE435F0F8EF8AF0A42C00
:10099800E5F038FCE433CB8DF0A42CFCE5F03BF813
:1009A800EE8AF0A42CFCE5F038F8E433CF89F0A403
:1009B8002CFCE5F038CF3400CE89F0A42FFFE5F009
:1009C8003EFEE433C98DF0A42EFEE5F039CD8AF061
:1009D800A42FFFE5F03EFEE43DFD33D0E0FB5007D9
:1009E8000BBB000F020B52EC2CFCEF33FFEE33FE77
:0609F800ED33FD020B2AA5
:1009FE00020B52EC5D046005E859047003020B48CB
:100A0E00120B13580460F6EC4860F2EC7004FDFE15
:100A1E00FF22C860DB2481C85009C39860025006CB
:100A2E00020B4F9850CAF582E9294B4A7005AB82EA
:100A3E00020B3E75F0007C1A7880C3EF9BEE9AEDA8
:100A4E0099400DC3EF9BFFEE9AFEED99FDE842F043
:100A5E00DC23ACF0D0E0FFD0E0FED0E0FDAB822096
:100A6E00E7101BEB60BAEC2CFCEF33FFEE33FEED20
:100A7E0033FD020B2AE803F830E705C0F075F000ED
:100A8E00EF2FFFEE33FEED33FD40B830E7C280AA04
:100A9E0075F020800E75F010800575F0087D007ED3
:100AAE00007F003392D530D503120B8AEC33401001
:100ABE00EF33FFEE33FEED33FDEC33FCD5F0ED22DC
:0E0ACE00E5F0247EA2D513CC92E7CDCEFF2218
:100ADC00EDD2E7CD33EC3392D524814006E4FFFE12
:100AEC00FDFC22FCE4CFCECDCC24E0501174FF8071
:100AFC00EDC3CC13CCCD13CDCE13CECF13CF04700E
:070B0C00F030D5DE020B8A78
:100B1300E9D2E7C933E833F892D5EDD2E7CD33EC28
:070B230033FC5002B2D522A1
:100B2A00EC30E7100FBF000C0EBE00080DBD00042C
:100B3A000BEB6014A2D5EB13FCED92E7FD2274FFD8
:100B4A00FCFDFEFF22E480F8A2D574FF13FC7D8031
:030B5A00E480EF45
:100BA400020C24E493A3F8E493A34003F68001F237
:100BB40008DFF48029E493A3F85407240CC8C33352
:100BC400C4540F4420C8834004F456800146F6DF21
:100BD400E4800B0102040810204080900F06E47E9C
:100BE400019360BCA3FF543F30E509541FFEE49316
:100BF400A360010ECF54C025E060A840B8E493A3DD
:100C0400FAE493A3F8E493A3C8C582C8CAC583CA07
:100C1400F0A3C8C582C8CAC583CADFE9DEE780BEBF
:010F0D0000E3
:100B5D00BB010CE58229F582E5833AF583E022504D
:100B6D0006E92582F8E622BBFE06E92582F8E22297
:0D0B7D00E58229F582E5833AF583E49322B1
:0E0B8A00C3E49FFFE49EFEE49DFDE49CFC227C
:00000001FF
